{
  "contractName": "University",
  "abi": [
    {
      "constant": true,
      "inputs": [
        {
          "name": "",
          "type": "address"
        }
      ],
      "name": "isAdministrator",
      "outputs": [
        {
          "name": "",
          "type": "bool"
        }
      ],
      "payable": false,
      "stateMutability": "view",
      "type": "function"
    },
    {
      "constant": true,
      "inputs": [
        {
          "name": "",
          "type": "bytes32"
        },
        {
          "name": "",
          "type": "uint256"
        }
      ],
      "name": "studentDegree",
      "outputs": [
        {
          "name": "",
          "type": "bytes32"
        }
      ],
      "payable": false,
      "stateMutability": "view",
      "type": "function"
    },
    {
      "constant": true,
      "inputs": [],
      "name": "owner",
      "outputs": [
        {
          "name": "",
          "type": "address"
        }
      ],
      "payable": false,
      "stateMutability": "view",
      "type": "function"
    },
    {
      "inputs": [],
      "payable": false,
      "stateMutability": "nonpayable",
      "type": "constructor"
    },
    {
      "constant": false,
      "inputs": [
        {
          "name": "studentId",
          "type": "bytes32"
        },
        {
          "name": "degreeId",
          "type": "bytes32"
        }
      ],
      "name": "addDegree",
      "outputs": [],
      "payable": false,
      "stateMutability": "nonpayable",
      "type": "function"
    },
    {
      "constant": false,
      "inputs": [
        {
          "name": "newAdmin",
          "type": "address"
        }
      ],
      "name": "addAdmin",
      "outputs": [],
      "payable": false,
      "stateMutability": "nonpayable",
      "type": "function"
    }
  ],
  "bytecode": "0x6060604052341561000f57600080fd5b336000806101000a81548173ffffffffffffffffffffffffffffffffffffffff021916908373ffffffffffffffffffffffffffffffffffffffff16021790555060018060008060009054906101000a900473ffffffffffffffffffffffffffffffffffffffff1673ffffffffffffffffffffffffffffffffffffffff1673ffffffffffffffffffffffffffffffffffffffff16815260200190815260200160002060006101000a81548160ff021916908315150217905550610424806100d66000396000f30060606040526004361061006d576000357c0100000000000000000000000000000000000000000000000000000000900463ffffffff1680630a2eb301146100725780632f7c752d146100c357806370480275146100f7578063829184bf146101305780638da5cb5b1461017c575b600080fd5b341561007d57600080fd5b6100a9600480803573ffffffffffffffffffffffffffffffffffffffff169060200190919050506101d1565b604051808215151515815260200191505060405180910390f35b34156100ce57600080fd5b6100f5600480803560001916906020019091908035600019169060200190919050506101f1565b005b341561010257600080fd5b61012e600480803573ffffffffffffffffffffffffffffffffffffffff1690602001909190505061029c565b005b341561013b57600080fd5b61015e600480803560001916906020019091908035906020019091905050610351565b60405180826000191660001916815260200191505060405180910390f35b341561018757600080fd5b61018f610382565b604051808273ffffffffffffffffffffffffffffffffffffffff1673ffffffffffffffffffffffffffffffffffffffff16815260200191505060405180910390f35b60016020528060005260406000206000915054906101000a900460ff1681565b60011515600160003373ffffffffffffffffffffffffffffffffffffffff1673ffffffffffffffffffffffffffffffffffffffff16815260200190815260200160002060009054906101000a900460ff16151514151561025057600080fd5b600260008360001916600019168152602001908152602001600020805480600101828161027d91906103a7565b9160005260206000209001600083909190915090600019169055505050565b3373ffffffffffffffffffffffffffffffffffffffff166000809054906101000a900473ffffffffffffffffffffffffffffffffffffffff1673ffffffffffffffffffffffffffffffffffffffff161415156102f757600080fd5b60018060008373ffffffffffffffffffffffffffffffffffffffff1673ffffffffffffffffffffffffffffffffffffffff16815260200190815260200160002060006101000a81548160ff02191690831515021790555050565b60026020528160005260406000208181548110151561036c57fe5b9060005260206000209001600091509150505481565b6000809054906101000a900473ffffffffffffffffffffffffffffffffffffffff1681565b8154818355818115116103ce578183600052602060002091820191016103cd91906103d3565b5b505050565b6103f591905b808211156103f15760008160009055506001016103d9565b5090565b905600a165627a7a7230582006f1ea84651896aec41b73957ed15bb0db463986e4eaa169a87c8d7eff4f93b30029",
  "source": "pragma solidity ^0.4.21;\n\ncontract University \n{\n    address public owner;\n    \n    \n    mapping(address => bool) public isAdministrator;\n\n    // Mapping of student to degree\n    mapping(bytes32 => bytes32[]) public studentDegree;\n\n\n    function University() public\n    {\n        owner = msg.sender;\n        isAdministrator[owner] = true;\n        \n    }\n\n    modifier onlyOwner {\n        require(owner == msg.sender);\n        _;\n    }\n\n    modifier onlyAdministrator\n    {\n        require(isAdministrator[msg.sender] == true);\n        _;\n    }\n\n    function addDegree(bytes32 studentId, bytes32 degreeId) public onlyAdministrator\n    {\n        studentDegree[studentId].push(degreeId);\n    }\n\n    function addAdmin(address newAdmin) public onlyOwner {\n        isAdministrator[newAdmin] = true;\n    }\n\n}",
  "sourcePath": "/Users/marc/Documents/Blockathon/Project/contracts/University.sol",
  "compiler": {
    "name": "solc",
    "version": "0.4.21+commit.dfe3193c.Emscripten.clang"
  },
  "schemaVersion": "2.0.0",
  "updatedAt": "2018-04-13T16:55:36.950Z"
}